{
  "_format": "hh-sol-artifact-1",
  "contractName": "Create",
  "sourceName": "contracts/VotingContract.sol",
  "abi": [
    {
      "inputs": [],
      "stateMutability": "nonpayable",
      "type": "constructor"
    },
    {
      "anonymous": false,
      "inputs": [
        {
          "indexed": true,
          "internalType": "uint256",
          "name": "candidateId",
          "type": "uint256"
        },
        {
          "indexed": false,
          "internalType": "string",
          "name": "age",
          "type": "string"
        },
        {
          "indexed": false,
          "internalType": "string",
          "name": "name",
          "type": "string"
        },
        {
          "indexed": false,
          "internalType": "string",
          "name": "image",
          "type": "string"
        },
        {
          "indexed": false,
          "internalType": "uint256",
          "name": "voteCount",
          "type": "uint256"
        },
        {
          "indexed": false,
          "internalType": "address",
          "name": "_address",
          "type": "address"
        },
        {
          "indexed": false,
          "internalType": "string",
          "name": "ipfs",
          "type": "string"
        }
      ],
      "name": "CandidateCreate",
      "type": "event"
    },
    {
      "anonymous": false,
      "inputs": [
        {
          "indexed": false,
          "internalType": "uint256",
          "name": "voter_voterId",
          "type": "uint256"
        },
        {
          "indexed": false,
          "internalType": "string",
          "name": "voter_name",
          "type": "string"
        },
        {
          "indexed": false,
          "internalType": "string",
          "name": "voter_image",
          "type": "string"
        },
        {
          "indexed": false,
          "internalType": "address",
          "name": "voter_address",
          "type": "address"
        },
        {
          "indexed": false,
          "internalType": "uint256",
          "name": "voter_allowed",
          "type": "uint256"
        },
        {
          "indexed": false,
          "internalType": "bool",
          "name": "voter_voted",
          "type": "bool"
        },
        {
          "indexed": false,
          "internalType": "uint256",
          "name": "voter_vote",
          "type": "uint256"
        },
        {
          "indexed": false,
          "internalType": "string",
          "name": "voter_ipfs",
          "type": "string"
        }
      ],
      "name": "VoterCreated",
      "type": "event"
    },
    {
      "inputs": [],
      "name": "_candidateId",
      "outputs": [
        {
          "internalType": "uint256",
          "name": "_value",
          "type": "uint256"
        }
      ],
      "stateMutability": "view",
      "type": "function"
    },
    {
      "inputs": [],
      "name": "_voterId",
      "outputs": [
        {
          "internalType": "uint256",
          "name": "_value",
          "type": "uint256"
        }
      ],
      "stateMutability": "view",
      "type": "function"
    },
    {
      "inputs": [
        {
          "internalType": "uint256",
          "name": "",
          "type": "uint256"
        }
      ],
      "name": "candidateAddress",
      "outputs": [
        {
          "internalType": "address",
          "name": "",
          "type": "address"
        }
      ],
      "stateMutability": "view",
      "type": "function"
    },
    {
      "inputs": [
        {
          "internalType": "address",
          "name": "",
          "type": "address"
        }
      ],
      "name": "candidates",
      "outputs": [
        {
          "internalType": "uint256",
          "name": "candidateId",
          "type": "uint256"
        },
        {
          "internalType": "string",
          "name": "age",
          "type": "string"
        },
        {
          "internalType": "string",
          "name": "name",
          "type": "string"
        },
        {
          "internalType": "string",
          "name": "image",
          "type": "string"
        },
        {
          "internalType": "uint256",
          "name": "voteCount",
          "type": "uint256"
        },
        {
          "internalType": "address",
          "name": "_address",
          "type": "address"
        },
        {
          "internalType": "string",
          "name": "ipfs",
          "type": "string"
        }
      ],
      "stateMutability": "view",
      "type": "function"
    },
    {
      "inputs": [],
      "name": "getCandidate",
      "outputs": [
        {
          "internalType": "address[]",
          "name": "",
          "type": "address[]"
        }
      ],
      "stateMutability": "view",
      "type": "function"
    },
    {
      "inputs": [
        {
          "internalType": "address",
          "name": "_address",
          "type": "address"
        }
      ],
      "name": "getCandidateData",
      "outputs": [
        {
          "internalType": "string",
          "name": "",
          "type": "string"
        },
        {
          "internalType": "string",
          "name": "",
          "type": "string"
        },
        {
          "internalType": "uint256",
          "name": "",
          "type": "uint256"
        },
        {
          "internalType": "string",
          "name": "",
          "type": "string"
        },
        {
          "internalType": "uint256",
          "name": "",
          "type": "uint256"
        },
        {
          "internalType": "string",
          "name": "",
          "type": "string"
        },
        {
          "internalType": "address",
          "name": "",
          "type": "address"
        }
      ],
      "stateMutability": "view",
      "type": "function"
    },
    {
      "inputs": [],
      "name": "getCandidateLength",
      "outputs": [
        {
          "internalType": "uint256",
          "name": "",
          "type": "uint256"
        }
      ],
      "stateMutability": "view",
      "type": "function"
    },
    {
      "inputs": [],
      "name": "getVotedVoterList",
      "outputs": [
        {
          "internalType": "address[]",
          "name": "",
          "type": "address[]"
        }
      ],
      "stateMutability": "view",
      "type": "function"
    },
    {
      "inputs": [
        {
          "internalType": "address",
          "name": "_address",
          "type": "address"
        }
      ],
      "name": "getVoterData",
      "outputs": [
        {
          "internalType": "uint256",
          "name": "",
          "type": "uint256"
        },
        {
          "internalType": "string",
          "name": "",
          "type": "string"
        },
        {
          "internalType": "string",
          "name": "",
          "type": "string"
        },
        {
          "internalType": "address",
          "name": "",
          "type": "address"
        },
        {
          "internalType": "string",
          "name": "",
          "type": "string"
        },
        {
          "internalType": "uint256",
          "name": "",
          "type": "uint256"
        },
        {
          "internalType": "bool",
          "name": "",
          "type": "bool"
        }
      ],
      "stateMutability": "view",
      "type": "function"
    },
    {
      "inputs": [],
      "name": "getVoterLength",
      "outputs": [
        {
          "internalType": "uint256",
          "name": "",
          "type": "uint256"
        }
      ],
      "stateMutability": "view",
      "type": "function"
    },
    {
      "inputs": [],
      "name": "getVoterList",
      "outputs": [
        {
          "internalType": "address[]",
          "name": "",
          "type": "address[]"
        }
      ],
      "stateMutability": "view",
      "type": "function"
    },
    {
      "inputs": [
        {
          "internalType": "address",
          "name": "_address",
          "type": "address"
        },
        {
          "internalType": "string",
          "name": "_age",
          "type": "string"
        },
        {
          "internalType": "string",
          "name": "_name",
          "type": "string"
        },
        {
          "internalType": "string",
          "name": "_image",
          "type": "string"
        },
        {
          "internalType": "string",
          "name": "_ipfs",
          "type": "string"
        }
      ],
      "name": "setCandidate",
      "outputs": [],
      "stateMutability": "nonpayable",
      "type": "function"
    },
    {
      "inputs": [
        {
          "internalType": "address",
          "name": "_candidateAddress",
          "type": "address"
        },
        {
          "internalType": "uint256",
          "name": "_candidateVoteId",
          "type": "uint256"
        }
      ],
      "name": "vote",
      "outputs": [],
      "stateMutability": "nonpayable",
      "type": "function"
    },
    {
      "inputs": [
        {
          "internalType": "uint256",
          "name": "",
          "type": "uint256"
        }
      ],
      "name": "votedVoters",
      "outputs": [
        {
          "internalType": "address",
          "name": "",
          "type": "address"
        }
      ],
      "stateMutability": "view",
      "type": "function"
    },
    {
      "inputs": [
        {
          "internalType": "address",
          "name": "_address",
          "type": "address"
        },
        {
          "internalType": "string",
          "name": "_name",
          "type": "string"
        },
        {
          "internalType": "string",
          "name": "_image",
          "type": "string"
        },
        {
          "internalType": "string",
          "name": "_ipfs",
          "type": "string"
        }
      ],
      "name": "voterRight",
      "outputs": [],
      "stateMutability": "nonpayable",
      "type": "function"
    },
    {
      "inputs": [
        {
          "internalType": "address",
          "name": "",
          "type": "address"
        }
      ],
      "name": "voters",
      "outputs": [
        {
          "internalType": "uint256",
          "name": "voter_voterId",
          "type": "uint256"
        },
        {
          "internalType": "string",
          "name": "voter_name",
          "type": "string"
        },
        {
          "internalType": "string",
          "name": "voter_image",
          "type": "string"
        },
        {
          "internalType": "address",
          "name": "voter_address",
          "type": "address"
        },
        {
          "internalType": "uint256",
          "name": "voter_allowed",
          "type": "uint256"
        },
        {
          "internalType": "bool",
          "name": "voter_voted",
          "type": "bool"
        },
        {
          "internalType": "uint256",
          "name": "voter_vote",
          "type": "uint256"
        },
        {
          "internalType": "string",
          "name": "voter_ipfs",
          "type": "string"
        }
      ],
      "stateMutability": "view",
      "type": "function"
    },
    {
      "inputs": [
        {
          "internalType": "uint256",
          "name": "",
          "type": "uint256"
        }
      ],
      "name": "votersAddress",
      "outputs": [
        {
          "internalType": "address",
          "name": "",
          "type": "address"
        }
      ],
      "stateMutability": "view",
      "type": "function"
    },
    {
      "inputs": [],
      "name": "votingOrganizer",
      "outputs": [
        {
          "internalType": "address",
          "name": "",
          "type": "address"
        }
      ],
      "stateMutability": "view",
      "type": "function"
    }
  ],
  "bytecode": "0x608060405234801561001057600080fd5b5033600260006101000a81548173ffffffffffffffffffffffffffffffffffffffff021916908373ffffffffffffffffffffffffffffffffffffffff160217905550612859806100616000396000f3fe608060405234801561001057600080fd5b50600436106101165760003560e01c80638ab66a90116100a2578063a738896711610071578063a738896714610334578063b28d92ae14610352578063b9be315214610370578063c91ec7121461038e578063f7522a83146103aa57610116565b80638ab66a90146102735780638e945685146102a95780638fb4cd80146102c7578063a3ec138d146102fd57610116565b806343242daa116100e957806343242daa146101bb5780635cc48aa7146101eb5780635f74bbde1461020957806370218b85146102255780637831ffb31461024357610116565b80630361419e1461011b57806305ad45a4146101375780632a466ac7146101555780633a88251a1461018b575b600080fd5b61013560048036038101906101309190611bb2565b6103c8565b005b61013f610677565b60405161014c9190611c86565b60405180910390f35b61016f600480360381019061016a9190611ca1565b610684565b6040516101829796959493929190611d5c565b60405180910390f35b6101a560048036038101906101a09190611e13565b610acb565b6040516101b29190611e40565b60405180910390f35b6101d560048036038101906101d09190611e13565b610b0a565b6040516101e29190611e40565b60405180910390f35b6101f3610b49565b6040516102009190611e40565b60405180910390f35b610223600480360381019061021e9190611e5b565b610b6f565b005b61022d610d36565b60405161023a9190611f59565b60405180910390f35b61025d60048036038101906102589190611e13565b610dc4565b60405161026a9190611e40565b60405180910390f35b61028d60048036038101906102889190611ca1565b610e03565b6040516102a09796959493929190611f7b565b60405180910390f35b6102b1611085565b6040516102be9190611f59565b60405180910390f35b6102e160048036038101906102dc9190611ca1565b611113565b6040516102f49796959493929190612021565b60405180910390f35b61031760048036038101906103129190611ca1565b6114db565b60405161032b9897969594939291906120a5565b60405180910390f35b61033c6116e8565b6040516103499190611c86565b60405180910390f35b61035a6116f4565b6040516103679190611f59565b60405180910390f35b610378611782565b6040516103859190611c86565b60405180910390f35b6103a860048036038101906103a39190612138565b61178e565b005b6103b26119c9565b6040516103bf9190611c86565b60405180910390f35b3373ffffffffffffffffffffffffffffffffffffffff16600260009054906101000a900473ffffffffffffffffffffffffffffffffffffffff1673ffffffffffffffffffffffffffffffffffffffff1614610458576040517f08c379a000000000000000000000000000000000000000000000000000000000815260040161044f9061226f565b60405180910390fd5b61046260016119d6565b600061046e60016119ec565b90506000600760008773ffffffffffffffffffffffffffffffffffffffff1673ffffffffffffffffffffffffffffffffffffffff168152602001908152602001600020905060008160040154146104fa576040517f08c379a00000000000000000000000000000000000000000000000000000000081526004016104f1906122db565b60405180910390fd5b60018160040181905550848160010190816105159190612507565b50838160020190816105279190612507565b50858160030160006101000a81548173ffffffffffffffffffffffffffffffffffffffff021916908373ffffffffffffffffffffffffffffffffffffffff1602179055508181600001819055506103e8816006018190555060008160050160006101000a81548160ff021916908315150217905550828160070190816105ad9190612507565b506005869080600181540180825580915050600190039060005260206000200160009091909190916101000a81548173ffffffffffffffffffffffffffffffffffffffff021916908373ffffffffffffffffffffffffffffffffffffffff1602179055507ff5f39971dd62d9929e3a9feaa6bb77fe7c7da0001babff8a65a7e51ad0201c198286868985600401548660050160009054906101000a900460ff1687600601548a6040516106679897969594939291906120a5565b60405180910390a1505050505050565b6000600580549050905090565b60608060006060600060606000600460008973ffffffffffffffffffffffffffffffffffffffff1673ffffffffffffffffffffffffffffffffffffffff168152602001908152602001600020600101600460008a73ffffffffffffffffffffffffffffffffffffffff1673ffffffffffffffffffffffffffffffffffffffff168152602001908152602001600020600201600460008b73ffffffffffffffffffffffffffffffffffffffff1673ffffffffffffffffffffffffffffffffffffffff16815260200190815260200160002060000154600460008c73ffffffffffffffffffffffffffffffffffffffff1673ffffffffffffffffffffffffffffffffffffffff168152602001908152602001600020600301600460008d73ffffffffffffffffffffffffffffffffffffffff1673ffffffffffffffffffffffffffffffffffffffff16815260200190815260200160002060040154600460008e73ffffffffffffffffffffffffffffffffffffffff1673ffffffffffffffffffffffffffffffffffffffff168152602001908152602001600020600601600460008f73ffffffffffffffffffffffffffffffffffffffff1673ffffffffffffffffffffffffffffffffffffffff16815260200190815260200160002060050160009054906101000a900473ffffffffffffffffffffffffffffffffffffffff1686805461088e9061232a565b80601f01602080910402602001604051908101604052809291908181526020018280546108ba9061232a565b80156109075780601f106108dc57610100808354040283529160200191610907565b820191906000526020600020905b8154815290600101906020018083116108ea57829003601f168201915b5050505050965085805461091a9061232a565b80601f01602080910402602001604051908101604052809291908181526020018280546109469061232a565b80156109935780601f1061096857610100808354040283529160200191610993565b820191906000526020600020905b81548152906001019060200180831161097657829003601f168201915b505050505095508380546109a69061232a565b80601f01602080910402602001604051908101604052809291908181526020018280546109d29061232a565b8015610a1f5780601f106109f457610100808354040283529160200191610a1f565b820191906000526020600020905b815481529060010190602001808311610a0257829003601f168201915b50505050509350818054610a329061232a565b80601f0160208091040260200160405190810160405280929190818152602001828054610a5e9061232a565b8015610aab5780601f10610a8057610100808354040283529160200191610aab565b820191906000526020600020905b815481529060010190602001808311610a8e57829003601f168201915b505050505091509650965096509650965096509650919395979092949650565b60038181548110610adb57600080fd5b906000526020600020016000915054906101000a900473ffffffffffffffffffffffffffffffffffffffff1681565b60058181548110610b1a57600080fd5b906000526020600020016000915054906101000a900473ffffffffffffffffffffffffffffffffffffffff1681565b600260009054906101000a900473ffffffffffffffffffffffffffffffffffffffff1681565b6000600760003373ffffffffffffffffffffffffffffffffffffffff1673ffffffffffffffffffffffffffffffffffffffff16815260200190815260200160002090508060050160009054906101000a900460ff1615610c04576040517f08c379a0000000000000000000000000000000000000000000000000000000008152600401610bfb90612625565b60405180910390fd5b6000816004015403610c4b576040517f08c379a0000000000000000000000000000000000000000000000000000000008152600401610c4290612691565b60405180910390fd5b60018160050160006101000a81548160ff0219169083151502179055508181600601819055506006339080600181540180825580915050600190039060005260206000200160009091909190916101000a81548173ffffffffffffffffffffffffffffffffffffffff021916908373ffffffffffffffffffffffffffffffffffffffff1602179055508060040154600460008573ffffffffffffffffffffffffffffffffffffffff1673ffffffffffffffffffffffffffffffffffffffff1681526020019081526020016000206004016000828254610d2a91906126e0565b92505081905550505050565b60606003805480602002602001604051908101604052809291908181526020018280548015610dba57602002820191906000526020600020905b8160009054906101000a900473ffffffffffffffffffffffffffffffffffffffff1673ffffffffffffffffffffffffffffffffffffffff1681526020019060010190808311610d70575b5050505050905090565b60068181548110610dd457600080fd5b906000526020600020016000915054906101000a900473ffffffffffffffffffffffffffffffffffffffff1681565b6004602052806000526040600020600091509050806000015490806001018054610e2c9061232a565b80601f0160208091040260200160405190810160405280929190818152602001828054610e589061232a565b8015610ea55780601f10610e7a57610100808354040283529160200191610ea5565b820191906000526020600020905b815481529060010190602001808311610e8857829003601f168201915b505050505090806002018054610eba9061232a565b80601f0160208091040260200160405190810160405280929190818152602001828054610ee69061232a565b8015610f335780601f10610f0857610100808354040283529160200191610f33565b820191906000526020600020905b815481529060010190602001808311610f1657829003601f168201915b505050505090806003018054610f489061232a565b80601f0160208091040260200160405190810160405280929190818152602001828054610f749061232a565b8015610fc15780601f10610f9657610100808354040283529160200191610fc1565b820191906000526020600020905b815481529060010190602001808311610fa457829003601f168201915b5050505050908060040154908060050160009054906101000a900473ffffffffffffffffffffffffffffffffffffffff16908060060180546110029061232a565b80601f016020809104026020016040519081016040528092919081815260200182805461102e9061232a565b801561107b5780601f106110505761010080835404028352916020019161107b565b820191906000526020600020905b81548152906001019060200180831161105e57829003601f168201915b5050505050905087565b6060600680548060200260200160405190810160405280929190818152602001828054801561110957602002820191906000526020600020905b8160009054906101000a900473ffffffffffffffffffffffffffffffffffffffff1673ffffffffffffffffffffffffffffffffffffffff16815260200190600101908083116110bf575b5050505050905090565b600060608060006060600080600760008973ffffffffffffffffffffffffffffffffffffffff1673ffffffffffffffffffffffffffffffffffffffff16815260200190815260200160002060000154600760008a73ffffffffffffffffffffffffffffffffffffffff1673ffffffffffffffffffffffffffffffffffffffff168152602001908152602001600020600101600760008b73ffffffffffffffffffffffffffffffffffffffff1673ffffffffffffffffffffffffffffffffffffffff168152602001908152602001600020600201600760008c73ffffffffffffffffffffffffffffffffffffffff1673ffffffffffffffffffffffffffffffffffffffff16815260200190815260200160002060030160009054906101000a900473ffffffffffffffffffffffffffffffffffffffff16600760008d73ffffffffffffffffffffffffffffffffffffffff1673ffffffffffffffffffffffffffffffffffffffff168152602001908152602001600020600701600760008e73ffffffffffffffffffffffffffffffffffffffff1673ffffffffffffffffffffffffffffffffffffffff16815260200190815260200160002060040154600760008f73ffffffffffffffffffffffffffffffffffffffff1673ffffffffffffffffffffffffffffffffffffffff16815260200190815260200160002060050160009054906101000a900460ff1685805461132a9061232a565b80601f01602080910402602001604051908101604052809291908181526020018280546113569061232a565b80156113a35780601f10611378576101008083540402835291602001916113a3565b820191906000526020600020905b81548152906001019060200180831161138657829003601f168201915b505050505095508480546113b69061232a565b80601f01602080910402602001604051908101604052809291908181526020018280546113e29061232a565b801561142f5780601f106114045761010080835404028352916020019161142f565b820191906000526020600020905b81548152906001019060200180831161141257829003601f168201915b505050505094508280546114429061232a565b80601f016020809104026020016040519081016040528092919081815260200182805461146e9061232a565b80156114bb5780601f10611490576101008083540402835291602001916114bb565b820191906000526020600020905b81548152906001019060200180831161149e57829003601f168201915b505050505092509650965096509650965096509650919395979092949650565b60076020528060005260406000206000915090508060000154908060010180546115049061232a565b80601f01602080910402602001604051908101604052809291908181526020018280546115309061232a565b801561157d5780601f106115525761010080835404028352916020019161157d565b820191906000526020600020905b81548152906001019060200180831161156057829003601f168201915b5050505050908060020180546115929061232a565b80601f01602080910402602001604051908101604052809291908181526020018280546115be9061232a565b801561160b5780601f106115e05761010080835404028352916020019161160b565b820191906000526020600020905b8154815290600101906020018083116115ee57829003601f168201915b5050505050908060030160009054906101000a900473ffffffffffffffffffffffffffffffffffffffff16908060040154908060050160009054906101000a900460ff16908060060154908060070180546116659061232a565b80601f01602080910402602001604051908101604052809291908181526020018280546116919061232a565b80156116de5780601f106116b3576101008083540402835291602001916116de565b820191906000526020600020905b8154815290600101906020018083116116c157829003601f168201915b5050505050905088565b60008060000154905081565b6060600580548060200260200160405190810160405280929190818152602001828054801561177857602002820191906000526020600020905b8160009054906101000a900473ffffffffffffffffffffffffffffffffffffffff1673ffffffffffffffffffffffffffffffffffffffff168152602001906001019080831161172e575b5050505050905090565b60018060000154905081565b3373ffffffffffffffffffffffffffffffffffffffff16600260009054906101000a900473ffffffffffffffffffffffffffffffffffffffff1673ffffffffffffffffffffffffffffffffffffffff161461181e576040517f08c379a000000000000000000000000000000000000000000000000000000000815260040161181590612786565b60405180910390fd5b61182860006119d6565b600061183460006119ec565b90506000600460008873ffffffffffffffffffffffffffffffffffffffff1673ffffffffffffffffffffffffffffffffffffffff16815260200190815260200160002090508581600101908161188a9190612507565b508481600201908161189c9190612507565b50818160000181905550838160030190816118b79190612507565b5060008160040181905550868160050160006101000a81548173ffffffffffffffffffffffffffffffffffffffff021916908373ffffffffffffffffffffffffffffffffffffffff160217905550828160060190816119169190612507565b506003879080600181540180825580915050600190039060005260206000200160009091909190916101000a81548173ffffffffffffffffffffffffffffffffffffffff021916908373ffffffffffffffffffffffffffffffffffffffff160217905550817fd297f12b256bb8485a6013fb5e302017018123e99a0ebb20756c09e1707b4b9087878785600401548c896040516119b8969594939291906127a6565b60405180910390a250505050505050565b6000600380549050905090565b6001816000016000828254019250508190555050565b600081600001549050919050565b6000604051905090565b600080fd5b600080fd5b600073ffffffffffffffffffffffffffffffffffffffff82169050919050565b6000611a3982611a0e565b9050919050565b611a4981611a2e565b8114611a5457600080fd5b50565b600081359050611a6681611a40565b92915050565b600080fd5b600080fd5b6000601f19601f8301169050919050565b7f4e487b7100000000000000000000000000000000000000000000000000000000600052604160045260246000fd5b611abf82611a76565b810181811067ffffffffffffffff82111715611ade57611add611a87565b5b80604052505050565b6000611af16119fa565b9050611afd8282611ab6565b919050565b600067ffffffffffffffff821115611b1d57611b1c611a87565b5b611b2682611a76565b9050602081019050919050565b82818337600083830152505050565b6000611b55611b5084611b02565b611ae7565b905082815260208101848484011115611b7157611b70611a71565b5b611b7c848285611b33565b509392505050565b600082601f830112611b9957611b98611a6c565b5b8135611ba9848260208601611b42565b91505092915050565b60008060008060808587031215611bcc57611bcb611a04565b5b6000611bda87828801611a57565b945050602085013567ffffffffffffffff811115611bfb57611bfa611a09565b5b611c0787828801611b84565b935050604085013567ffffffffffffffff811115611c2857611c27611a09565b5b611c3487828801611b84565b925050606085013567ffffffffffffffff811115611c5557611c54611a09565b5b611c6187828801611b84565b91505092959194509250565b6000819050919050565b611c8081611c6d565b82525050565b6000602082019050611c9b6000830184611c77565b92915050565b600060208284031215611cb757611cb6611a04565b5b6000611cc584828501611a57565b91505092915050565b600081519050919050565b600082825260208201905092915050565b60005b83811015611d08578082015181840152602081019050611ced565b60008484015250505050565b6000611d1f82611cce565b611d298185611cd9565b9350611d39818560208601611cea565b611d4281611a76565b840191505092915050565b611d5681611a2e565b82525050565b600060e0820190508181036000830152611d76818a611d14565b90508181036020830152611d8a8189611d14565b9050611d996040830188611c77565b8181036060830152611dab8187611d14565b9050611dba6080830186611c77565b81810360a0830152611dcc8185611d14565b9050611ddb60c0830184611d4d565b98975050505050505050565b611df081611c6d565b8114611dfb57600080fd5b50565b600081359050611e0d81611de7565b92915050565b600060208284031215611e2957611e28611a04565b5b6000611e3784828501611dfe565b91505092915050565b6000602082019050611e556000830184611d4d565b92915050565b60008060408385031215611e7257611e71611a04565b5b6000611e8085828601611a57565b9250506020611e9185828601611dfe565b9150509250929050565b600081519050919050565b600082825260208201905092915050565b6000819050602082019050919050565b611ed081611a2e565b82525050565b6000611ee28383611ec7565b60208301905092915050565b6000602082019050919050565b6000611f0682611e9b565b611f108185611ea6565b9350611f1b83611eb7565b8060005b83811015611f4c578151611f338882611ed6565b9750611f3e83611eee565b925050600181019050611f1f565b5085935050505092915050565b60006020820190508181036000830152611f738184611efb565b905092915050565b600060e082019050611f90600083018a611c77565b8181036020830152611fa28189611d14565b90508181036040830152611fb68188611d14565b90508181036060830152611fca8187611d14565b9050611fd96080830186611c77565b611fe660a0830185611d4d565b81810360c0830152611ff88184611d14565b905098975050505050505050565b60008115159050919050565b61201b81612006565b82525050565b600060e082019050612036600083018a611c77565b81810360208301526120488189611d14565b9050818103604083015261205c8188611d14565b905061206b6060830187611d4d565b818103608083015261207d8186611d14565b905061208c60a0830185611c77565b61209960c0830184612012565b98975050505050505050565b6000610100820190506120bb600083018b611c77565b81810360208301526120cd818a611d14565b905081810360408301526120e18189611d14565b90506120f06060830188611d4d565b6120fd6080830187611c77565b61210a60a0830186612012565b61211760c0830185611c77565b81810360e08301526121298184611d14565b90509998505050505050505050565b600080600080600060a0868803121561215457612153611a04565b5b600061216288828901611a57565b955050602086013567ffffffffffffffff81111561218357612182611a09565b5b61218f88828901611b84565b945050604086013567ffffffffffffffff8111156121b0576121af611a09565b5b6121bc88828901611b84565b935050606086013567ffffffffffffffff8111156121dd576121dc611a09565b5b6121e988828901611b84565b925050608086013567ffffffffffffffff81111561220a57612209611a09565b5b61221688828901611b84565b9150509295509295909350565b7f4f6e6c79206f7267616e697a6572206861732074686520616363657373000000600082015250565b6000612259601d83611cd9565b915061226482612223565b602082019050919050565b600060208201905081810360008301526122888161224c565b9050919050565b7f416c726561647920726567697374657265640000000000000000000000000000600082015250565b60006122c5601283611cd9565b91506122d08261228f565b602082019050919050565b600060208201905081810360008301526122f4816122b8565b9050919050565b7f4e487b7100000000000000000000000000000000000000000000000000000000600052602260045260246000fd5b6000600282049050600182168061234257607f821691505b602082108103612355576123546122fb565b5b50919050565b60008190508160005260206000209050919050565b60006020601f8301049050919050565b600082821b905092915050565b6000600883026123bd7fffffffffffffffffffffffffffffffffffffffffffffffffffffffffffffffff82612380565b6123c78683612380565b95508019841693508086168417925050509392505050565b6000819050919050565b60006124046123ff6123fa84611c6d565b6123df565b611c6d565b9050919050565b6000819050919050565b61241e836123e9565b61243261242a8261240b565b84845461238d565b825550505050565b600090565b61244761243a565b612452818484612415565b505050565b5b818110156124765761246b60008261243f565b600181019050612458565b5050565b601f8211156124bb5761248c8161235b565b61249584612370565b810160208510156124a4578190505b6124b86124b085612370565b830182612457565b50505b505050565b600082821c905092915050565b60006124de600019846008026124c0565b1980831691505092915050565b60006124f783836124cd565b9150826002028217905092915050565b61251082611cce565b67ffffffffffffffff81111561252957612528611a87565b5b612533825461232a565b61253e82828561247a565b600060209050601f831160018114612571576000841561255f578287015190505b61256985826124eb565b8655506125d1565b601f19841661257f8661235b565b60005b828110156125a757848901518255600182019150602085019450602081019050612582565b868310156125c457848901516125c0601f8916826124cd565b8355505b6001600288020188555050505b505050505050565b7f416c726561647920566f74656400000000000000000000000000000000000000600082015250565b600061260f600d83611cd9565b915061261a826125d9565b602082019050919050565b6000602082019050818103600083015261263e81612602565b9050919050565b7f596f7520617265206e6f74207265676973746572656420746f20766f74650000600082015250565b600061267b601e83611cd9565b915061268682612645565b602082019050919050565b600060208201905081810360008301526126aa8161266e565b9050919050565b7f4e487b7100000000000000000000000000000000000000000000000000000000600052601160045260246000fd5b60006126eb82611c6d565b91506126f683611c6d565b925082820190508082111561270e5761270d6126b1565b5b92915050565b7f4f6e6c79206f7267616e697a65722063616e206372656174652063616e64696460008201527f6174757265000000000000000000000000000000000000000000000000000000602082015250565b6000612770602583611cd9565b915061277b82612714565b604082019050919050565b6000602082019050818103600083015261279f81612763565b9050919050565b600060c08201905081810360008301526127c08189611d14565b905081810360208301526127d48188611d14565b905081810360408301526127e88187611d14565b90506127f76060830186611c77565b6128046080830185611d4d565b81810360a08301526128168184611d14565b905097965050505050505056fea264697066735822122070a79a6e3faa71a741a1d291d7965ef152baf3bfc54d4f893157822c2b5494b564736f6c63430008110033",
  "linkReferences": {},
  "deployedLinkReferences": {}
}